{
  "contractName": "TradingLogic",
  "abi": [
    {
      "inputs": [
        {
          "internalType": "contract PairStorage",
          "name": "_pairstorage",
          "type": "address"
        },
        {
          "internalType": "contract TradingStorage",
          "name": "_tradingStorage",
          "type": "address"
        }
      ],
      "stateMutability": "nonpayable",
      "type": "constructor"
    },
    {
      "inputs": [
        {
          "internalType": "uint256",
          "name": "_pair",
          "type": "uint256"
        }
      ],
      "name": "getPrice",
      "outputs": [
        {
          "internalType": "int256",
          "name": "",
          "type": "int256"
        }
      ],
      "stateMutability": "view",
      "type": "function",
      "constant": true
    },
    {
      "inputs": [
        {
          "internalType": "int256",
          "name": "_entry",
          "type": "int256"
        },
        {
          "internalType": "int256",
          "name": "_leverageAmount",
          "type": "int256"
        },
        {
          "internalType": "int256",
          "name": "_orderType",
          "type": "int256"
        }
      ],
      "name": "calculateTakeProfit",
      "outputs": [
        {
          "internalType": "int256",
          "name": "",
          "type": "int256"
        }
      ],
      "stateMutability": "view",
      "type": "function",
      "constant": true
    },
    {
      "inputs": [
        {
          "internalType": "int256",
          "name": "_entry",
          "type": "int256"
        },
        {
          "internalType": "int256",
          "name": "_leverageAmount",
          "type": "int256"
        },
        {
          "internalType": "int256",
          "name": "_collateral",
          "type": "int256"
        },
        {
          "internalType": "int256",
          "name": "_orderType",
          "type": "int256"
        }
      ],
      "name": "calculateLiquidationPrice",
      "outputs": [
        {
          "internalType": "int256",
          "name": "",
          "type": "int256"
        }
      ],
      "stateMutability": "view",
      "type": "function",
      "constant": true
    },
    {
      "inputs": [
        {
          "internalType": "int256",
          "name": "_entry",
          "type": "int256"
        },
        {
          "internalType": "int256",
          "name": "_exit",
          "type": "int256"
        },
        {
          "internalType": "int256",
          "name": "_leverageAmount",
          "type": "int256"
        },
        {
          "internalType": "int256",
          "name": "_collateral",
          "type": "int256"
        },
        {
          "internalType": "uint256",
          "name": "_orderType",
          "type": "uint256"
        }
      ],
      "name": "calculatePnL",
      "outputs": [
        {
          "internalType": "int256",
          "name": "",
          "type": "int256"
        }
      ],
      "stateMutability": "view",
      "type": "function",
      "constant": true
    }
  ],
  "bytecode": "0x60c06040526305f5e100600055605a60015561038460025534801561002357600080fd5b5060405161070838038061070883398101604081905261004291610071565b6001600160a01b039182166080521660a0526100ab565b6001600160a01b038116811461006e57600080fd5b50565b6000806040838503121561008457600080fd5b825161008f81610059565b60208401519092506100a081610059565b809150509250929050565b60805160a05161063b6100cd600039600050506000610226015261063b6000f3fe608060405234801561001057600080fd5b506004361061004c5760003560e01c80630742f5d114610051578063bd1956cc14610076578063e757223014610089578063efe477ca1461009c575b600080fd5b61006461005f36600461039d565b6100af565b60405190815260200160405180910390f35b6100646100843660046103cf565b610160565b61006461009736600461040a565b610203565b6100646100aa366004610423565b610302565b6000808260038111156100c4576100c461044f565b9050600085856064600154886100da919061047b565b6100e49190610500565b6100ee908a61047b565b6100f89190610500565b6101029190610500565b90506000600283600381111561011a5761011a61044f565b1480610137575060008360038111156101355761013561044f565b145b61014a57610145828961053c565b610154565b610154828961057d565b98975050505050505050565b6000808260038111156101755761017561044f565b9050600087610184878761047b565b61018e9190610500565b9050600060028360038111156101a6576101a661044f565b14806101c3575060008360038111156101c1576101c161044f565b145b6101e157816101d2898b61057d565b6101dc919061047b565b6101f6565b816101ec8a8a61057d565b6101f6919061047b565b9998505050505050505050565b604051632f7ce47360e21b81526004810182905260009081906001600160a01b037f0000000000000000000000000000000000000000000000000000000000000000169063bdf391cc90602401602060405180830381865afa15801561026d573d6000803e3d6000fd5b505050506040513d601f19601f8201168201806040525081019061029191906105bc565b90506000819050806001600160a01b03166398d5fdca6040518163ffffffff1660e01b8152600401602060405180830381865afa1580156102d6573d6000803e3d6000fd5b505050506040513d601f19601f820116820180604052508101906102fa91906105ec565b949350505050565b6000808260038111156103175761031761044f565b905060006064856002548861032c919061047b565b6103369190610500565b6103409190610500565b9050600060028360038111156103585761035861044f565b1480610375575060008360038111156103735761037361044f565b145b61038857610383828861057d565b610392565b610392828861053c565b979650505050505050565b600080600080608085870312156103b357600080fd5b5050823594602084013594506040840135936060013592509050565b600080600080600060a086880312156103e757600080fd5b505083359560208501359550604085013594606081013594506080013592509050565b60006020828403121561041c57600080fd5b5035919050565b60008060006060848603121561043857600080fd5b505081359360208301359350604090920135919050565b634e487b7160e01b600052602160045260246000fd5b634e487b7160e01b600052601160045260246000fd5b60006001600160ff1b03818413828413808216868404861116156104a1576104a1610465565b600160ff1b60008712828116878305891216156104c0576104c0610465565b600087129250878205871284841616156104dc576104dc610465565b878505871281841616156104f2576104f2610465565b505050929093029392505050565b60008261051d57634e487b7160e01b600052601260045260246000fd5b600160ff1b82146000198414161561053757610537610465565b500590565b600080821280156001600160ff1b038490038513161561055e5761055e610465565b600160ff1b839003841281161561057757610577610465565b50500190565b60008083128015600160ff1b85018412161561059b5761059b610465565b6001600160ff1b03840183138116156105b6576105b6610465565b50500390565b6000602082840312156105ce57600080fd5b81516001600160a01b03811681146105e557600080fd5b9392505050565b6000602082840312156105fe57600080fd5b505191905056fea2646970667358221220a02182460864f98b722ab0c510aa89125e3c61e85032cca3863fbb0be47ab50b64736f6c634300080f0033",
  "immutableReferences": {
    "2000": [
      {
        "length": 32,
        "start": 550
      }
    ]
  },
  "source": "// SPDX-License-Identifier: MIT\npragma solidity ^0.8.15;\n\nimport \"./PairStorage.sol\";\nimport \"./TradingStorage.sol\";\n\n\n\ninterface Pricefeed {\n    function getPrice() external view returns (uint);\n}\n\ncontract TradingLogic {\n    PairStorage immutable pairStorage;\n    TradingStorage immutable tradingStorage;\n\n    constructor(PairStorage _pairstorage, TradingStorage _tradingStorage) {\n        pairStorage = _pairstorage;\n        tradingStorage = _tradingStorage;\n    }\n\n    enum OrderType {\n        LIMIT_LONG,\n        LIMIT_SHORT,\n        MARKET_LONG,\n        MARKET_SHORT\n    }\n\n    int multiply = 1e8; // 8 decimals\n    int liquidationLimit = 90; // loss of 90% of collateral. The rest will be saved for fees\n    int maxTakeProfit = 900; // 900% of collateral.\n\n    // Get the price of the given pair.\n    function getPrice(uint _pair) public view returns (int) {\n        address pair = pairStorage.getPair(_pair);\n        Pricefeed pricefeed = Pricefeed(pair);\n\n        return int(pricefeed.getPrice());\n    }\n\n    // this function will only be used if the trader does not choose\n    // to set a take profit for the trade\n    function calculateTakeProfit(\n        int _entry,\n        int _leverageAmount,\n        int _orderType\n    ) public view returns (int) {\n        OrderType order = OrderType(_orderType);\n        int takeProfitAmount = (_entry * maxTakeProfit) /\n            _leverageAmount /\n            100;\n\n        int takeProfit = order == OrderType.MARKET_LONG ||\n            order == OrderType.LIMIT_LONG\n            ? _entry + takeProfitAmount\n            : _entry - takeProfitAmount;\n\n        return takeProfit;\n    }\n\n    function calculateLiquidationPrice(\n        int _entry,  // 1e8 \n        int _leverageAmount,\n        int _collateral, // 1e18 from FE\n        int _orderType\n    ) public view returns (int) {\n        OrderType order = OrderType(_orderType);\n\n        int liquidationAmount = (_entry *\n            ((_collateral * liquidationLimit) / 100)) /\n            _collateral /\n            _leverageAmount;\n\n        int liquidationPrice = order == OrderType.MARKET_LONG ||\n            order == OrderType.LIMIT_LONG\n            ? _entry - liquidationAmount\n            : _entry + liquidationAmount;\n\n        return liquidationPrice;  // 1e8\n    }\n\n    function calculatePnL(   // need to check for max Profit\n        int _entry,\n        int _exit,\n        int _leverageAmount,\n        int _collateral,\n        uint _orderType\n    ) public  view returns (int) {\n        OrderType order = OrderType(_orderType);\n       // collateral - 1e18 // entry price and exit price - 1e8\n        int size = (_collateral * _leverageAmount) / _entry;\n\n        int pnl = order == OrderType.MARKET_LONG ||\n            order == OrderType.LIMIT_LONG\n            ? (_exit - _entry) * size\n            : (_entry - _exit) * size;\n\n        return pnl;\n    }\n}\n",
  "sourcePath": "/Users/cobra/Desktop/APED/truffle-aped/truffle-trading-contracts/contracts/TradingLogic.sol",
  "compiler": {
    "name": "solc",
    "version": "0.8.15+commit.e14f2714.Emscripten.clang"
  },
  "schemaVersion": "3.4.11",
  "updatedAt": "2023-04-11T07:58:38.648Z",
  "networkType": "ethereum",
  "devdoc": {
    "kind": "dev",
    "methods": {},
    "version": 1
  },
  "userdoc": {
    "kind": "user",
    "methods": {},
    "version": 1
  }
}