{
  "contractName": "Vault",
  "abi": [
    {
      "inputs": [
        {
          "internalType": "contract MarketTradingControl",
          "name": "_tradingControl",
          "type": "address"
        },
        {
          "internalType": "contract TradingStorage",
          "name": "_tradingStorage",
          "type": "address"
        },
        {
          "internalType": "contract ApedToken",
          "name": "_apedToken",
          "type": "address"
        },
        {
          "internalType": "contract MockDAI",
          "name": "_daiAddress",
          "type": "address"
        },
        {
          "internalType": "contract AccessControl",
          "name": "_accessControl",
          "type": "address"
        }
      ],
      "stateMutability": "nonpayable",
      "type": "constructor"
    },
    {
      "inputs": [],
      "name": "DAI",
      "outputs": [
        {
          "internalType": "contract MockDAI",
          "name": "",
          "type": "address"
        }
      ],
      "stateMutability": "view",
      "type": "function",
      "constant": true
    },
    {
      "inputs": [
        {
          "internalType": "uint256",
          "name": "",
          "type": "uint256"
        }
      ],
      "name": "traders",
      "outputs": [
        {
          "internalType": "address",
          "name": "",
          "type": "address"
        }
      ],
      "stateMutability": "view",
      "type": "function",
      "constant": true
    },
    {
      "inputs": [
        {
          "internalType": "uint256",
          "name": "_pair",
          "type": "uint256"
        },
        {
          "internalType": "int256",
          "name": "orderType",
          "type": "int256"
        },
        {
          "internalType": "int256",
          "name": "_leverageAmount",
          "type": "int256"
        },
        {
          "internalType": "int256",
          "name": "_collateral",
          "type": "int256"
        },
        {
          "internalType": "int256",
          "name": "_takeProfit",
          "type": "int256"
        },
        {
          "internalType": "int256",
          "name": "_stopLoss",
          "type": "int256"
        }
      ],
      "name": "openMarketPriceOrder",
      "outputs": [
        {
          "internalType": "uint256",
          "name": "",
          "type": "uint256"
        }
      ],
      "stateMutability": "nonpayable",
      "type": "function"
    },
    {
      "inputs": [
        {
          "internalType": "uint256",
          "name": "_tradeId",
          "type": "uint256"
        },
        {
          "internalType": "address",
          "name": "_trader",
          "type": "address"
        }
      ],
      "name": "closeOrder",
      "outputs": [
        {
          "internalType": "int256",
          "name": "",
          "type": "int256"
        }
      ],
      "stateMutability": "nonpayable",
      "type": "function"
    },
    {
      "inputs": [],
      "name": "checkTokenVaultBalance",
      "outputs": [
        {
          "internalType": "uint256",
          "name": "",
          "type": "uint256"
        }
      ],
      "stateMutability": "view",
      "type": "function",
      "constant": true
    }
  ],
  "bytecode": "0x61010060405234801561001157600080fd5b50604051610c38380380610c3883398101604081905261003091610081565b6001600160a01b0394851660a05291841660c052600080546001600160a01b031916918516919091179055821660e052166080526100f6565b6001600160a01b038116811461007e57600080fd5b50565b600080600080600060a0868803121561009957600080fd5b85516100a481610069565b60208701519095506100b581610069565b60408701519094506100c681610069565b60608701519093506100d781610069565b60808701519092506100e881610069565b809150509295509295909350565b60805160a05160c05160e051610aed61014b600039600061011d01526000818161053f01528181610627015281816106ab015261078301526000818161025f01526103a70152600061030b0152610aed6000f3fe608060405234801561001057600080fd5b50600436106100575760003560e01c8063135e563d1461005c5780634959967c1461008c578063934f91b9146100a2578063ae2e054c146100b5578063e0bab4c4146100c8575b600080fd5b61006f61006a366004610828565b6100db565b6040516001600160a01b0390911681526020015b60405180910390f35b610094610105565b604051908152602001610083565b6100946100b0366004610841565b6101a0565b6100946100c336600461089c565b6102e0565b60005461006f906001600160a01b031681565b600381815481106100eb57600080fd5b6000918252602090912001546001600160a01b0316905081565b604051630935e01b60e21b81523360048201526000907f00000000000000000000000000000000000000000000000000000000000000006001600160a01b0316906324d7806c90602401602060405180830381865afa15801561016c573d6000803e3d6000fd5b505050506040513d601f19601f8201168201806040525081019061019091906108cc565b61019957600080fd5b5060015490565b600080546040516323b872dd60e01b8152336004820152306024820152604481018690526001600160a01b03909116906323b872dd906064016020604051808303816000875af11580156101f8573d6000803e3d6000fd5b505050506040513d601f19601f8201168201806040525081019061021c91906108cc565b5060405163e998190360e01b81523360048201526024810188905260448101879052606481018690526084810185905260a4810184905260c481018390526000907f00000000000000000000000000000000000000000000000000000000000000006001600160a01b03169063e99819039060e4016020604051808303816000875af11580156102b0573d6000803e3d6000fd5b505050506040513d601f19601f820116820180604052508101906102d491906108f5565b98975050505050505050565b6040516306642f6160e51b8152600481018390526001600160a01b03828116602483015260009182917f0000000000000000000000000000000000000000000000000000000000000000169063cc85ec209060440161016060405180830381865afa158015610353573d6000803e3d6000fd5b505050506040513d601f19601f820116820180604052508101906103779190610956565b60c0015160405163c2fe93ed60e01b8152600481018690526001600160a01b0385811660248301529192506000917f0000000000000000000000000000000000000000000000000000000000000000169063c2fe93ed906044016020604051808303816000875af11580156103f0573d6000803e3d6000fd5b505050506040513d601f19601f8201168201806040525081019061041491906108f5565b905060006104228284610a06565b905060008113156104a65760005460405163a9059cbb60e01b81526001600160a01b038781166004830152602482018490529091169063a9059cbb906044016020604051808303816000875af1158015610480573d6000803e3d6000fd5b505050506040513d601f19601f820116820180604052508101906104a491906108cc565b505b6104ae6104b7565b95945050505050565b600080546040516370a0823160e01b81523060048201526001600160a01b03909116906370a0823190602401602060405180830381865afa158015610500573d6000803e3d6000fd5b505050506040513d601f19601f8201168201806040525081019061052491906108f5565b600080546040516370a0823160e01b81526001600160a01b037f000000000000000000000000000000000000000000000000000000000000000081166004830152939450919216906370a0823190602401602060405180830381865afa158015610592573d6000803e3d6000fd5b505050506040513d601f19601f820116820180604052508101906105b691906108f5565b905060006105c5605a8361080c565b905060006105d460788461080c565b90508184111580156105f157506a01a784379d99db420000008410155b15610728576000610603600a8561080c565b6040516381735dfb60e01b8152600481018290529091506000906001600160a01b037f000000000000000000000000000000000000000000000000000000000000000016906381735dfb90602401602060405180830381865afa15801561066e573d6000803e3d6000fd5b505050506040513d601f19601f8201168201806040525081019061069291906108f5565b604051630852cd8d60e31b8152600481018290529091507f00000000000000000000000000000000000000000000000000000000000000006001600160a01b0316906342966c68906024016020604051808303816000875af11580156106fc573d6000803e3d6000fd5b505050506040513d601f19601f8201168201806040525081019061072091906108f5565b505050610806565b80841015801561074357506a01a784379d99db420000008410155b1561080657600061075f6a01a784379d99db4200000086610a47565b60405163140e25ad60e31b8152600481018290529091506000906001600160a01b037f0000000000000000000000000000000000000000000000000000000000000000169063a0712d68906024016020604051808303816000875af11580156107cc573d6000803e3d6000fd5b505050506040513d601f19601f820116820180604052508101906107f091906108f5565b9050806001546108009190610a5e565b60015550505b50505050565b6000806108198385610a76565b905060006104ae606483610a95565b60006020828403121561083a57600080fd5b5035919050565b60008060008060008060c0878903121561085a57600080fd5b505084359660208601359650604086013595606081013595506080810135945060a0013592509050565b6001600160a01b038116811461089957600080fd5b50565b600080604083850312156108af57600080fd5b8235915060208301356108c181610884565b809150509250929050565b6000602082840312156108de57600080fd5b815180151581146108ee57600080fd5b9392505050565b60006020828403121561090757600080fd5b5051919050565b604051610160810167ffffffffffffffff8111828210171561094057634e487b7160e01b600052604160045260246000fd5b60405290565b805161095181610884565b919050565b6000610160828403121561096957600080fd5b61097161090e565b61097a83610946565b81526020830151602082015260408301516040820152606083015160608201526080830151608082015260a083015160a082015260c083015160c082015260e083015160e08201526101008084015181830152506101208084015181830152506101408084015181830152508091505092915050565b634e487b7160e01b600052601160045260246000fd5b600080821280156001600160ff1b0384900385131615610a2857610a286109f0565b600160ff1b8390038412811615610a4157610a416109f0565b50500190565b600082821015610a5957610a596109f0565b500390565b60008219821115610a7157610a716109f0565b500190565b6000816000190483118215151615610a9057610a906109f0565b500290565b600082610ab257634e487b7160e01b600052601260045260246000fd5b50049056fea264697066735822122001bade90058157e0432e07c93239e015ed7da2e4585fbf536455a703e85bc21a64736f6c634300080f0033",
  "immutableReferences": {
    "2968": [
      {
        "length": 32,
        "start": 779
      }
    ],
    "2971": [
      {
        "length": 32,
        "start": 607
      },
      {
        "length": 32,
        "start": 935
      }
    ],
    "2974": [
      {
        "length": 32,
        "start": 1343
      },
      {
        "length": 32,
        "start": 1575
      },
      {
        "length": 32,
        "start": 1707
      },
      {
        "length": 32,
        "start": 1923
      }
    ],
    "2977": [
      {
        "length": 32,
        "start": 285
      }
    ]
  },
  "source": "pragma solidity ^0.8.15;\n\n\nimport \"./MarketTradingControl.sol\";\nimport \"./ApedToken.sol\";\nimport \"./MockDAI.sol\";\nimport \"./AccessControl.sol\";\nimport \"./TradingStorage.sol\";\n\ninterface DAIInterface {\n    function balanceOf(address account) external view returns (uint256);\n    function transfer(address to, uint256 amount) external returns (bool);\n    function allowance(address owner, address spender) external view returns (uint256);\n    function approve(address spender, uint256 amount) external returns (bool);\n    function transferFrom(address from, address to, uint256 amount) external returns (bool);\n}\n\ncontract Vault {\n\n    //contracts\n    TradingStorage immutable tradingStorage;\n    MarketTradingControl immutable marketTradingControl;\n    ApedToken immutable apedToken;\n    AccessControl immutable accessControl;\n    MockDAI public DAI;\n\n\n    uint internal vaultTokenBalance;\n\n    address private apedAdmin;\n    address[] public traders;\n\n    constructor(MarketTradingControl _tradingControl, \n                TradingStorage _tradingStorage,\n                ApedToken _apedToken, \n                MockDAI _daiAddress, \n                AccessControl _accessControl)  {\n        marketTradingControl = _tradingControl;\n        apedToken = _apedToken;\n        DAI = _daiAddress;\n        accessControl = _accessControl;\n        tradingStorage = _tradingStorage;\n\n    }\n\n\n\n    function openMarketPriceOrder(\n                uint _pair, \n                int orderType, \n                int _leverageAmount, \n                int _collateral, \n                int _takeProfit, \n                int _stopLoss) public returns(uint) {\n\n        DAI.transferFrom(msg.sender, address(this), uint(_collateral));\n\n        uint tradeId = marketTradingControl.openMarketOrder(\n                         msg.sender, \n                         _pair, \n                         orderType, \n                         _leverageAmount, \n                         _collateral, \n                         _takeProfit,\n                          _stopLoss\n                    );\n        \n\n        return tradeId;\n\n    }\n\n    // _tradeId - index location in allTrades[]\n    // _tradeIndex - index location in userOpenTrades\n    function closeOrder(uint _tradeId, address _trader) public returns(int) {\n        int collateral = tradingStorage.getOpenTradeDetails(_tradeId, _trader).collateral;\n        \n        int profit  = marketTradingControl.closeMarketOrder(_tradeId, _trader);\n\n        \n        int pnl = collateral + profit;\n        if(pnl > 0) DAI.transfer(_trader, uint(pnl));\n\n        vaultBalancing();\n\n        return pnl;\n\n\n    }\n\n\n    function vaultBalancing() internal {\n       uint vaultReserveBalance = DAI.balanceOf(address(this));\n\n       uint curveReserveBalance = DAI.balanceOf(address(apedToken));\n       uint burnThreshold = percent(90, curveReserveBalance);\n       uint mintThreshold = percent(120, curveReserveBalance); // should keep 110% collateralized \n        \n\n       if (vaultReserveBalance <= burnThreshold && vaultReserveBalance >= 200000 * 10e18 ) {\n        // calculate required APED token amount to get 10% amount of DAI from curve\n        uint reserveTokenRequest = percent(10, curveReserveBalance);\n        uint apedTokenRequired = apedToken.calculateBurnAmountRequired(reserveTokenRequest);\n        \n        // need to check if vault has equal or more aped Token required\n        apedToken.burn(apedTokenRequired);\n\n       } else if (vaultReserveBalance >= mintThreshold && vaultReserveBalance >= 200000 * 10e18) {\n\n          uint excessVaultBalance = vaultReserveBalance - (200000 * 10e18);        \n          uint token = apedToken.mint(excessVaultBalance);\n          vaultTokenBalance = vaultTokenBalance + token;\n\n       }\n\n    }\n\n    function percent(uint a, uint b) internal pure returns(uint) {\n      uint c = a*b;\n      uint integer = c/100;\n    //   uint fractional = c%100;\n      return integer;\n    }\n\n    function checkTokenVaultBalance() public view returns (uint) {\n        require(accessControl.isAdmin(msg.sender));\n        return vaultTokenBalance;\n    }\n\n\n}",
  "sourcePath": "/Users/cobra/Desktop/APED/truffle-aped/truffle-trading-contracts/contracts/Vault.sol",
  "compiler": {
    "name": "solc",
    "version": "0.8.15+commit.e14f2714.Emscripten.clang"
  },
  "schemaVersion": "3.4.11",
  "updatedAt": "2023-04-11T07:58:38.672Z",
  "networkType": "ethereum",
  "devdoc": {
    "kind": "dev",
    "methods": {},
    "version": 1
  },
  "userdoc": {
    "kind": "user",
    "methods": {},
    "version": 1
  }
}